:100000000C945D000C945B050C9434050C948500F5
:100010000C9485000C9485000C9485000C9485004C
:100020000C9485000C9485000C9485000C9485003C
:100030000C9485000C9485000C9485000C9485002C
:100040000C94EA040C9485000C94B8040C9492046B
:100050000C9485000C9485000C9485000C9485000C
:100060000C9485000C9485000000000024002700FB
:100070002A0000000000250028002B0004040404CE
:100080000404040402020202020203030303030342
:10009000010204081020408001020408102001021F
:1000A00004081020000000080002010000030407FB
:1000B0000000000000000000820511241FBECFEFE9
:1000C000D8E0DEBFCDBF11E0A0E0B1E0E6E9F4E1A9
:1000D00002C005900D92A634B107D9F722E0A6E43C
:1000E000B1E001C01D92AC34B207E1F710E0CDE5FC
:1000F000D0E004C02197FE010E946B07CC35D107E8
:10010000C9F70E94CC050C94490A0C940000AF92E8
:10011000BF92CF92DF92EF92FF920F931F93CF93F4
:10012000DF936C017B018B01040F151FEB015E0156
:10013000AE18BF08C017D10759F06991D601ED91EB
:10014000FC910190F081E02DC6010995892B79F78A
:10015000C501DF91CF911F910F91FF90EF90DF903C
:10016000CF90BF90AF900895FC01538D448D252F03
:1001700030E0842F90E0821B930B541710F0CF9641
:10018000089501970895FC01918D828D981761F073
:10019000A28DAE0FBF2FB11D5D968C91928D9F5F8A
:1001A0009F73928F90E008958FEF9FEF0895FC0169
:1001B000918D828D981731F0828DE80FF11D858D1C
:1001C00090E008958FEF9FEF0895FC01918D228DAF
:1001D000892F90E0805C9F4F821B91098F73992734
:1001E000089587E991E00E94E50021E0892B09F458
:1001F00020E0822F089580E090E0892B29F00E9472
:10020000F10081110C9400000895FC01A48DA80F49
:10021000B92FB11DA35ABF4F2C91848D90E0019648
:100220008F739927848FA689B7892C93A089B18968
:100230008C91837080648C93938D848D981306C009
:100240000288F389E02D80818F7D80830895EF926D
:10025000FF920F931F93CF93DF93EC0181E0888F80
:100260009B8D8C8D98131AC0E889F989808185FF50
:1002700015C09FB7F894EE89FF896083E889F989F2
:1002800080818370806480839FBF81E090E0DF91F4
:10029000CF911F910F91FF90EF900895F62E0B8D47
:1002A00010E00F5F1F4F0F731127E02E8C8D8E1102
:1002B0000CC00FB607FCFACFE889F989808185FF69
:1002C000F5CFCE010E940501F1CFEB8DEC0FFD2F94
:1002D000F11DE35AFF4FF0829FB7F8940B8FEA8924
:1002E000FB8980818062CFCFCF93DF93EC01888D33
:1002F0008823B9F0AA89BB89E889F9898C9185FDA1
:1003000003C0808186FD0DC00FB607FCF7CF8C912E
:1003100085FFF2CF808185FFEDCFCE010E940501E0
:10032000E9CFDF91CF91089590E0FC01EC55FF4FAC
:100330002491FC01E057FF4F3491FC01E458FF4F3A
:10034000E491EE23C9F0222339F0233001F1A8F41F
:10035000213019F1223029F1F0E0EE0FFF1FEE58A5
:10036000FF4FA591B4918FB7F894EC91611126C01D
:1003700030953E233C938FBF08952730A9F0283055
:10038000C9F0243049F7809180008F7D03C08091AF
:1003900080008F7780938000DFCF84B58F7784BD16
:1003A000DBCF84B58F7DFBCF8091B0008F778093BA
:1003B000B000D2CF8091B0008F7DF9CF3E2BDACF45
:1003C000CF93DF9390E0FC01E057FF4F24918458D6
:1003D0009F4FFC0184918823D1F090E0880F991FF2
:1003E000FC01E859FF4FA591B491FC01EE58FF4F75
:1003F000C591D49161110EC09FB7F8948C91E22FF2
:10040000E0958E238C932881E223E8839FBFDF91C0
:10041000CF9108958FB7F894EC91E22BEC938FBFB6
:10042000F6CF8E50806480937C0080917A00806447
:1004300080937A0080917A0086FDFCCF80917800CD
:100440009091790008953FB7F89480918B01909135
:100450008C01A0918D01B0918E0126B5A89B05C09D
:100460002F3F19F00196A11DB11D3FBFBA2FA92F33
:10047000982F8827BC01CD01620F711D811D911D30
:1004800042E0660F771F881F991F4A95D1F708959C
:100490000895089590E080E00895809105018823F3
:1004A00039F060E08DE00E949401109205010895FA
:1004B00061E08DE00E94940181E080930501089540
:1004C000CF93DF93EC0160E08E810E94940161E0A4
:1004D0008E810E94940160E08E810E9494018BE8DD
:1004E00091E00197F1F7DF91CF910895CF92DF92DC
:1004F000EF92FF920F931F93CF93DF936C017C01D8
:1005000087E0E80EF11CD0E0C0E0062F10E0B80153
:100510000C2E02C0759567950A94E2F76170F70199
:1005200081917F010E9494012196C430D10579F711
:10053000C601DF91CF911F910F91FF90EF90DF9057
:10054000CF900C946002CF92DF92EF92FF920F93C4
:100550001F93CF93DF93EC01F62E642F8C810E94C2
:1005600094018D818F3F19F060E00E9494010F2D5E
:1005700010E08F8584FF25C06E0187E0C80ED11C76
:10058000F12CE12CB8010E2C02C0759567950A94E8
:10059000E2F76170F60181916F010E949401FFEF13
:1005A000EF1AFF0A88E0E816F10461F7CE01DF9147
:1005B000CF911F910F91FF90EF90DF90CF900C940F
:1005C0006002B80184E0759567958A95E1F7CE01E0
:1005D0000E9476026F2DCE01DF91CF911F910F9176
:1005E000FF90EF90DF90CF900C94760240E0682F60
:1005F00084E392E00C94A302CF93DF93823029F43A
:100600009091430298609093430280934702109226
:10061000480280E48093490280E180934A0280E5A9
:1006200080934B0261E0809138020E94E00180914A
:1006300039028F3F19F061E00E94E00161E0809192
:100640003A020E94E001C4E3D2E09E01245332400A
:100650008091430284FD0BC084E090E0219628172E
:10066000390744F461E08E810E94E001EECF88E01A
:1006700090E0F4CF8BE39DE00197F1F760E080918B
:1006800038020E94940160E080913A020E94940135
:10069000809139028F3F19F060E00E9494018091AF
:1006A000430284FD39C063E084E392E00E94760255
:1006B000CBE4D6E4CE010197F1F763E084E392E066
:1006C0000E9476022197F1F763E084E392E00E94B2
:1006D000760283E592E00197F1F762E084E392E02D
:1006E0000E9476028091430280620E94F60284E0BA
:1006F000809344028CE00E94F60281E00E94F602A0
:100700008BE39FE10197F1F782E08093450286E059
:10071000DF91CF910C94F60280620E94F6028BE486
:1007200096E40197F1F78091430280620E94F602FD
:1007300083E592E00197F1F78091430280620E9485
:10074000F602D0CFE1E0909147029111E0E0E1950F
:10075000F0E0EC5CFD4F9489890F80680C94F60200
:1007600041E00E94A30281E090E00895FB01019026
:100770000020E9F73197AF01461B570BDC01ED91E3
:10078000FC910280F381E02D099487E991E00E94B9
:10079000C3008634A9F48091040160E0882349F005
:1007A0008DE00E9494011092040160E083E00C94BB
:1007B00094018DE00E94940181E080930401F5CFC3
:1007C000833499F76AE587E991E00E9427018091D7
:1007D00092018F93809191018F93809194018F93D7
:1007E000809193018F93809196018F9380919501D1
:1007F0008F9384E291E09F938F9386E491E09F939F
:100800008F930E94710766E471E087E991E00E948E
:10081000B60387E991E00E9474018DB79EB70A96EE
:100820000FB6F8949EBF0FBE8DBFBFCF8F929F9221
:10083000AF92BF92CF92DF92EF92FF92CF93DF936E
:10084000CDB7DEB7A1970FB6F894DEBF0FBECDBF10
:100850006C01990FEE08FF08F7FE40C041E06DE221
:1008600084E392E00E94A30222273327A9012C19D6
:100870003D094E095F0919A2CE0181967C019AE0DB
:10088000892E912CA12CB12CCA01B901A50194018A
:100890000E944907605DF70162937F0121153105D0
:1008A0004105510589F790E080E0309729F0BF01BC
:1008B00084E392E00E94B6030196A1960FB6F894E5
:1008C000DEBF0FBECDBFDF91CF91FF90EF90DF90E5
:1008D000CF90BF90AF909F908F900895A701960101
:1008E00019A2CE0181967C018AE0882E912CA12C40
:1008F000B12CCA01B901A50194010E944907605DAC
:10090000F70162937F01211531054105510589F7F2
:1009100090E080E0309789F2BF0184E392E00E948A
:10092000B603CBCF1F920F920FB60F9211242F93C5
:100930003F934F935F936F937F938F939F93AF9367
:10094000BF93EF93FF9387E991E00E940501FF9128
:10095000EF91BF91AF919F918F917F916F915F9137
:100960004F913F912F910F900FBE0F901F901895B0
:100970001F920F920FB60F9211242F938F939F9374
:10098000EF93FF93E091A701F091A8018081E0919E
:10099000AD01F091AE0182FD1BC090818091B0014C
:1009A0008F5F8F732091B101821741F0E091B00108
:1009B000F0E0E956FE4F958F8093B001FF91EF91E3
:1009C0009F918F912F910F900FBE0F901F901895B0
:1009D0008081F4CF1F920F920FB60F9211242F93A4
:1009E0003F938F939F93AF93BF9380918701909193
:1009F0008801A0918901B0918A013091860123E09C
:100A0000230F2D3758F50196A11DB11D20938601A6
:100A10008093870190938801A0938901B0938A0104
:100A200080918B0190918C01A0918D01B0918E01EC
:100A30000196A11DB11D80938B0190938C01A09311
:100A40008D01B0938E01BF91AF919F918F913F9196
:100A50002F910F900FBE0F901F90189526E8230F2F
:100A60000296A11DB11DD2CF1F920F920FB60F9209
:100A700011242F933F934F935F936F937F938F93A3
:100A80009F93AF93BF93EF93FF93E0910201F09197
:100A900003010995FF91EF91BF91AF919F918F91C4
:100AA0007F916F915F914F913F912F910F900FBE6A
:100AB0000F901F9018951F920F920FB60F9211244E
:100AC0002F933F934F935F936F937F938F939F9356
:100AD000AF93BF93EF93FF93E0910001F091010179
:100AE0000995FF91EF91BF91AF919F918F917F9168
:100AF0006F915F914F913F912F910F900FBE0F908B
:100B00001F901895E7E9F1E01382128288EE93E0D6
:100B1000A0E0B0E084839583A683B7838AE091E068
:100B20009183808385EC90E09587848784EC90E0C6
:100B30009787868780EC90E0918B808B81EC90E0AA
:100B4000938B828B82EC90E0958B848B86EC90E08B
:100B5000978B868B118E128E138E148EE4E3F2E047
:100B6000138212828CE191E0918380838AE08483F6
:100B70008FEF858389E0868388E0878387E080879D
:100B800086E0818785E0828713861486158616861F
:100B9000178681E00C94FC02789484B5826084BD51
:100BA00084B5816084BD85B5826085BD85B5816071
:100BB00085BD80916E00816080936E0010928100EF
:100BC00080918100826080938100809181008160AA
:100BD000809381008091800081608093800080916B
:100BE000B10084608093B1008091B00081608093F7
:100BF000B00080917A00846080937A0080917A00BE
:100C0000826080937A0080917A00816080937A007C
:100C100080917A00806880937A001092C10082E00F
:100C20000E94FC028DE492E0909301018093000108
:100C3000809169008C7F816080936900E89A85ECDF
:100C400093E0909303018093020180916900837F78
:100C5000846080936900E99A61E08DE00E94E00180
:100C600060E083E10E94E00160E08EE00E94E0012C
:100C700061E08CE00E94E00161E084E00E94E0011C
:100C800061E083E00E94E00161E082E10E94E00116
:100C9000E091A701F091A80182E08083E091A30197
:100CA000F091A4011082E091A501F091A6018FECD2
:100CB00080831092AF01E091AB01F091AC0186E02E
:100CC0008083E091A901F091AA01808180618083F5
:100CD000E091A901F091AA01808188608083E09170
:100CE000A901F091AA01808180688083E091A90127
:100CF000F091AA0180818F7D8083C0E0D0E080E107
:100D00000E94110297FD0196959587950197909302
:100D100096018093950183E10E94110297FD01964F
:100D200095958795909394018093930181E10E941A
:100D3000110297FD01969595879590939201809366
:100D400091018EE00E9411029093900180938F0197
:100D500080E00E94A2036CE371E084E392E00E94D1
:100D6000B60382E00E94A2038091950190919601C2
:100D70000E94160485E00E94A2036FE371E084E301
:100D800092E00E94B60387E00E94A2038091930143
:100D9000909194010E9416048BE00E94A20362E4E9
:100DA00071E084E392E00E94B6038DE00E94A2030A
:100DB00080919101909192010E9416040E94230259
:100DC0004B015C0134E6C32ED12CE12CF12C0E94A6
:100DD0002302681979098A099B09683E73408105D5
:100DE0009105A8F321E0C21AD108E108F10888EEC4
:100DF000880E83E0981EA11CB11CC114D104E1042B
:100E0000F10429F780910501882341F080910401C4
:100E1000882321F061E08DE00E94940187E991E050
:100E20000E94E500181619061CF461E083E0F4CF77
:100E300080919301909194018A3291406CF4809159
:100E40009101909192018936914034F480919501FD
:100E500090919601CD977CF061E084E00E9494012E
:100E6000209709F44CCF0E94F100882309F447CF62
:100E70000E94000044CF60E084E00E9494018091D1
:100E80008F019091900161E0C2970CF460E08CE0DA
:100E9000E5CFA1E21A2EAA1BBB1BFD010DC0AA1FA4
:100EA000BB1FEE1FFF1FA217B307E407F50720F0D3
:100EB000A21BB30BE40BF50B661F771F881F991F4E
:100EC0001A9469F760957095809590959B01AC0197
:100ED000BD01CF010895EE0FFF1F0590F491E02DA5
:100EE0000994AEE0B0E0E7E7F7E00C94200A0D8942
:100EF0001E8986E08C831A8309838FEF9FE79E8388
:100F00008D83AE01475E5F4F6F89788DCE0101966C
:100F10000E9494072F813885020F131FF801108259
:100F20002E96E4E00C943C0AABE0B0E0EAE9F7E08E
:100F30000C94120A7C013B018A01FC011782168283
:100F4000838181FFC8C1CE0101965C01F7019381C5
:100F5000F30193FD859193FF81913F01882309F46B
:100F600053C1853239F493FD859193FF81913F01FF
:100F7000853229F4B70190E00E948409E7CF912CD3
:100F8000212C312CFFE1F31538F08B3211F190F464
:100F9000803209F1833229F137FC3CC020ED280F63
:100FA0002A3050F536FE20C08AE0989E200D11248C
:100FB000922E06C08D3291F0803371F7689430F82C
:100FC000F30193FD859193FF81913F018111DACF68
:100FD00021C0689431F8689432F8F2CF689433F8FD
:100FE000EFCF689434F8ECCFEAE02E9E200D112468
:100FF000222E689435F8E4CF8E3229F436FC04C1F1
:10100000689436F8DDCF8C3619F4689437F8D8CF69
:101010008836B1F2982F9F7D95549330E0F0833657
:10102000A1F18337C1F1833509F063C02801F2E0F3
:101030004F0E511CF801C080D180692D70E036FC44
:1010400002C06FEF7FEFC6010E946E094C016894E9
:1010500037F882010AC00C5F1F4FFFE3F983882431
:101060008394912C6501E89437F833FE2DC0522CFF
:101070008114910471F5552009F468CFB70180E21D
:1010800090E00E9484095A94F6CFF8018081898308
:101090000E5F1F4FE4CF2801F2E04F0E511CF80104
:1010A000C080D180692D70E036FC02C06FEF7FEF09
:1010B000C6010E9479094C018201D5CFB70180E2B7
:1010C00090E00E9484092A942814190409F0B0F7CA
:1010D000CECFF60137FC859137FE81916F01B701C4
:1010E00090E00E94840951105A94F1E08F1A9108FF
:1010F000BFCF843619F0893609F077C0F80137FE82
:101100006BC060817181828193810C5F1F4FF32DD1
:10111000FF763F2E97FF09C0909580957095619559
:101120007F4F8F4F9F4F689437F82AE030E0A5013A
:101130000E94B409C82ECA188C2C432C36FE0CC051
:10114000E89440F8C91440F434FE05C032FC03C0F2
:10115000F32DFE7E4F2E892C44FE95C0FE01EC0D32
:10116000F11D8081803309F087C0242D297E422E15
:10117000842D8870582E43FC95C040FE8FC09C2C57
:10118000821418F42C0C922C981844FE91C0B701CC
:1011900080E390E00E94840942FE09C088E790E065
:1011A00041FE02C088E590E0B7010E948409C9149D
:1011B00008F48AC0CA94D12C9FEFC91AD90ACA0C64
:1011C000DB1CF60182916F01B70190E00E94840957
:1011D000AC14BD04B1F74FCF60817181072E000CB4
:1011E000880B990B0E5F1F4F92CFD32CE894D4F845
:1011F0002AE030E0853739F1232D297FD22E8F3632
:1012000001F148F48835A9F0F701868197812B9682
:10121000E2E10C942E0A803749F08837A9F7D4FE12
:1012200002C06894D2F820E130E00DC06894D4F890
:10123000F6CF34FE03C0822F8660D82E20E132E044
:1012400002C028E030E0F801D7FE0FC06081718154
:10125000828193810C5F1F4FA5010E94B409C82EA3
:10126000CA183D2CE89437F867CF6081718190E00F
:1012700080E00E5F1F4FF0CF42FC02C0839478CF16
:101280008394839475CF842D867809F471CFF6CF3B
:10129000B70180E290E00E94840983948214C0F335
:1012A000512C73CF522C5818821408F46ECFF8CFFB
:1012B000842D867809F47BCF8BE241FE80E247FCE7
:1012C0008DE2B70190E071CFB70180E390E00E941A
:1012D00084099A946CCF8FEF9FEF99CFFC01059012
:1012E000615070400110D8F7809590958E0F9F1F28
:1012F0000895FC016150704001900110D8F780956D
:1013000090958E0F9F1F08950F931F93CF93DF9398
:10131000182F092FEB018B8181FD09C01FEF0FEF03
:10132000812F902FDF91CF911F910F91089582FF10
:1013300014C02E813F818C819D81281739073CF490
:10134000E881F981CF0101969983888310838E818A
:101350009F8101969F838E83E3CFE885F985812F56
:101360000995892BA1F3DACFFA01AA27283051F188
:10137000203181F1E8946F936E7F6E5F7F4F8F4FC6
:101380009F4FAF4FB1E03ED0B4E03CD0670F781F25
:10139000891F9A1FA11D680F791F8A1F911DA11D0A
:1013A0006A0F711D811D911DA11D20D009F4689443
:1013B0003F912AE0269F11243019305D3193DEF6EB
:1013C000CF010895462F4770405D4193B3E00FD0A1
:1013D000C9F7F6CF462F4F70405D4A3318F0495D8C
:1013E00031FD4052419302D0A9F7EACFB4E0A6956F
:1013F0009795879577956795BA95C9F70097610591
:10140000710508959B01AC010A2E069457954795E6
:1014100037952795BA95C9F7620F731F841F951FDB
:10142000A01D08952F923F924F925F926F927F92EC
:101430008F929F92AF92BF92CF92DF92EF92FF92E4
:101440000F931F93CF93DF93CDB7DEB7CA1BDB0B90
:101450000FB6F894DEBF0FBECDBF09942A88398835
:1014600048885F846E847D848C849B84AA84B9843C
:10147000C884DF80EE80FD800C811B81AA81B98148
:10148000CE0FD11D0FB6F894DEBF0FBECDBFED015C
:061490000895F894FFCF5F
:101496004802480201010000000027018700B4004D
:1014A6007401E500C300D70000000000B003870008
:1014B6004A0249022054333A2025642056333A2002
:1014C60025642041333A202564200D00543D005602
:0614D6003D00493D00004D
:00000001FF
