:100000000C9454000C943D030C9416030C947C0047
:100010000C947C000C947C000C947C000C947C0070
:100020000C947C000C947C000C947C000C947C0060
:100030000C947C000C9464030C947C000C947C0065
:100040000C9474020C947C000C94E4020C94BE0298
:100050000C947C000C947C000C947C000C947C0030
:100060000C947C000C947C0000000000250028000B
:100070002B0000000000240027002A0004040404D0
:100080000404040402020202020203030303030342
:10009000010204081020408001020408102001021F
:1000A000040810208B03DE0411241FBECFEFD8E01C
:1000B000DEBFCDBF21E0A0E2B1E001C01D92AC3DAA
:1000C000B207E1F711E0A0E0B1E0E6EBFEE002C02C
:1000D00005900D92A032B107D9F710E0C3E5D0E04A
:1000E00004C02197FE010E945605C235D107C9F709
:1000F0000E94C3030C944E070C9400000895AF9225
:10010000BF92CF92DF92EF92FF920F931F93CF9304
:10011000DF936C017B018B01040F151FEB015E0166
:10012000AE18BF08C017D10759F06991D601ED91FB
:10013000FC910190F081E02DC6010995892B79F79A
:10014000C501DF91CF911F910F91FF90EF90DF904C
:10015000CF90BF90AF900895FC01538D448D252F13
:1001600030E0842F90E0821B930B541710F0CF9651
:10017000089501970895FC01918D828D981761F083
:10018000A28DAE0FBF2FB11D5D968C91928D9F5F9A
:100190009F73928F90E008958FEF9FEF0895FC0179
:1001A000918D828D981731F0828DE80FF11D858D2C
:1001B00090E008958FEF9FEF0895FC01918D228DBF
:1001C000892F90E0805C9F4F821B91098F73992744
:1001D000089589E291E00E94DD0021E0892B09F475
:1001E00020E0822F089580E090E0892B29F00E9482
:1001F000E90081110C9400000895FC01A48DA80F62
:10020000B92FB11DA35ABF4F2C91848D90E0019658
:100210008F739927848FA689B7892C93A089B18978
:100220008C91837080648C93938D848D981306C019
:100230000288F389E02D80818F7D80830895EF927D
:10024000FF920F931F93CF93DF93EC0181E0888F90
:100250009B8D8C8D98131AC0E889F989808185FF60
:1002600015C09FB7F894EE89FF896083E889F98902
:1002700080818370806480839FBF81E090E0DF9104
:10028000CF911F910F91FF90EF900895F62E0B8D57
:1002900010E00F5F1F4F0F731127E02E8C8D8E1112
:1002A0000CC00FB607FCFACFE889F989808185FF79
:1002B000F5CFCE010E94FD00F1CFEB8DEC0FFD2FAD
:1002C000F11DE35AFF4FF0829FB7F8940B8FEA8934
:1002D000FB8980818062CFCF682F89E291E00C9406
:1002E0001F01CF93DF93EC01888D8823B9F0AA8991
:1002F000BB89E889F9898C9185FD03C0808186FDE1
:100300000DC00FB607FCF7CF8C9185FFF2CF80812F
:1003100085FFEDCFCE010E94FD00E9CFDF91CF91A7
:10032000089586E490E00E946C0189E291E00C94CB
:10033000710181E490E00E946C0189E291E00E94E9
:10034000710182E490E00E946C0189E291E00E94D8
:10035000710183E490E00C946C0108950895FC0110
:1003600080819181009711F00C94F80508950F9306
:100370001F93CF93DF938C01EB01FC01808191816E
:100380000097E1F06881798161157105A9F04281DA
:1003900053812C813D814217530770F00E9447071B
:1003A0008C819D81F801958384831D821C82DF915D
:1003B000CF911F910F9108950E94F805888199812E
:1003C000F801918380838A819B81938382838C81CE
:1003D0009D8195838483198218821B821A82E5CFBE
:1003E000EF92FF920F931F93CF93DF93EC017B016A
:1003F0008A0188819981009729F02A813B812417FD
:10040000350788F4B8016F5F7F4F0E94810600971F
:1004100091F0998388831B830A832C813D81232B50
:1004200011F4FC0110821D830C83B701888199812E
:100430000E9447070CC088819981009711F00E94A3
:10044000F805198218821D821C821B821A82CE0135
:10045000DF91CF911F910F91FF90EF900895FC01D4
:1004600011821082138212821582148250E040E0C1
:100470006EE171E00C94F001EF92FF920F931F93E5
:10048000CF93DF93CDB7DEB762970FB6F894DEBF98
:100490000FBECDBF8C01CB01F801118210821382F7
:1004A0001282158214824AE09E012F5F3F4F79012C
:1004B000B9010E94EA04F70101900020E9F73197A1
:1004C000AF014E195F09B701C8010E94F0016296A1
:1004D0000FB6F894DEBF0FBECDBFDF91CF911F9155
:1004E0000F91FF90EF9008951F920F920FB60F9209
:1004F00011242F933F938F939F93AF93BF9380913A
:10050000250190912601A0912701B09128013091F9
:10051000240123E0230F2D3758F50196A11DB11DAD
:10052000209324018093250190932601A093270115
:10053000B09328018091200190912101A091220186
:10054000B09123010196A11DB11D809320019093CC
:100550002101A0932201B0932301BF91AF919F91FC
:100560008F913F912F910F900FBE0F901F90189574
:1005700026E8230F0296A11DB11DD2CF1F920F9224
:100580000FB60F9211242F933F934F935F936F9366
:100590007F938F939F93AF93BF93EF93FF9389E2E2
:1005A00091E00E94FD00FF91EF91BF91AF919F916B
:1005B0008F917F916F915F914F913F912F910F900C
:1005C0000FBE0F901F9018951F920F920FB60F92AB
:1005D00011242F938F939F93EF93FF93E091390111
:1005E000F0913A018081E0913F01F091400182FD5C
:1005F0001BC09081809142018F5F8F7320914301D6
:10060000821741F0E0914201F0E0E75DFE4F958FE7
:1006100080934201FF91EF919F918F912F910F90C5
:100620000FBE0F901F9018958081F4CF1F920F92EC
:100630000FB60F9211242F933F934F935F936F93B5
:100640007F938F939F93AF93BF93EF93FF93E0912B
:100650000201F09103010995FF91EF91BF91AF91D4
:100660009F918F917F916F915F914F913F912F91CA
:100670000F900FBE0F901F9018951F920F920FB6FC
:100680000F9211242F933F934F935F936F937F9318
:100690008F939F93AF93BF93EF93FF93E0910001EC
:1006A000F09101010995FF91EF91BF91AF919F9159
:1006B0008F917F916F915F914F913F912F910F900B
:1006C0000FBE0F901F9018951F920F920FB60F92AA
:1006D00011242F933F934F935F936F937F938F9347
:1006E0009F93AF93BF93EF93FF93E0910401F09139
:1006F00005010995FF91EF91BF91AF919F918F9166
:100700007F916F915F914F913F912F910F900FBE0D
:100710000F901F901895E9E2F1E01382128288EEA3
:1007200093E0A0E0B0E084839583A683B78380E163
:1007300091E09183808385EC90E09587848784ECB9
:1007400090E09787868780EC90E0918B808B81EC9E
:1007500090E0938B828B82EC90E0958B848B86EC7F
:1007600090E0978B868B118E128E138E148E82EDF5
:1007700091E00E942F028CEC91E00E942F0286EC07
:1007800091E00C942F02CF93DF9300D000D000D0E3
:10079000CDB7DEB7789484B5826084BD84B58160BE
:1007A00084BD85B5826085BD85B5816085BD80913C
:1007B0006E00816080936E001092810080918100B4
:1007C00082608093810080918100816080938100AC
:1007D000809180008160809380008091B10084606E
:1007E0008093B1008091B00081608093B0008091CF
:1007F0007A00846080937A0080917A00826080938E
:100800007A0080917A00816080937A0080917A00EA
:10081000806880937A001092C100E2E9F0E02491B0
:10082000EEE7F0E084918823C9F090E0880F991FEB
:10083000FC01EE58FF4F45915491FC01E859FF4FE0
:10084000A591B4919FB7F894FA01808120958223F5
:1008500080838C91E22FE823EC939FBF81E991E0A4
:100860009093010180930001809169008C7F8160E9
:1008700080936900E89A89E991E09093050180935B
:10088000040181E080936F0080E1809381001092E9
:1008900080008DE89BE5909387008093860085E13A
:1008A00080938100E0913901F0913A0182E08083E8
:1008B000E0913501F09136011082E0913701F0911D
:1008C00038018FEC808310924101E0913D01F0915D
:1008D0003E0186E08083E0913B01F0913C01808104
:1008E00080618083E0913B01F0913C0180818860D0
:1008F0008083E0913B01F0913C018081806880839E
:10090000E0913B01F0913C0180818F7D808300E08C
:1009100010E089E291E00E94DD00181619060CF043
:1009200041C089E291E00E94BB008835C9F489E2A8
:1009300091E00E94BB00BC01CE0101960E943C02E6
:10094000BE016F5F7F4F82ED91E00E94B701CE0143
:1009500001960E94AF0189E291E00E947101D9CF16
:10096000893579F489E291E00E94BB00BC01CE0197
:1009700001960E943C02BE016F5F7F4F8CEC91E0BC
:10098000E4CF8A3531F689E291E00E94BB00BC01D8
:10099000CE0101960E943C02BE016F5F7F4F86EC44
:1009A00091E0D3CF0115110509F4B3CF0E94E900FE
:1009B000882309F4AECF0E940000ABCF86EC91E013
:1009C0000E94AF018CEC91E00E94AF0182ED91E0BA
:1009D0000C94AF01BB274A3031F4992322F4BDE2D5
:1009E000909581959F4F0C94F604BB27FB015527EA
:1009F000AA27880F991FAA1FA41710F0A41B83957C
:100A00005051B9F7A05DAA3308F0A95DA1930097F2
:100A100079F7B111B1931192CB010C940F05DC0160
:100A2000FC01672F71917723E1F7329704C07C9125
:100A30006D9370836291AE17BF07C8F308952F922C
:100A40003F924F925F926F927F928F929F92AF925E
:100A5000BF92CF92DF92EF92FF920F931F93CF93AB
:100A6000DF93CDB7DEB7CA1BDB0B0FB6F894DEBF42
:100A70000FBECDBF09942A88398848885F846E8468
:100A80007D848C849B84AA84B984C884DF80EE80B2
:100A9000FD800C811B81AA81B981CE0FD11D0FB6BB
:100AA000F894DEBF0FBECDBFED010895EE0FFF1F1E
:100AB0000590F491E02D09940F931F93CF93DF934A
:100AC0008230910510F482E090E0E091DA01F0913B
:100AD000DB0130E020E0B0E0A0E0309799F4211590
:100AE000310509F44AC0281B390B24303105D8F5EB
:100AF0008A819B816115710589F1FB019383828352
:100B0000FE0111C0408151810281138148175907AC
:100B1000E0F04817590799F4109761F012960C937A
:100B2000129713961C933296CF01DF91CF911F91AC
:100B30000F9108950093DA011093DB01F4CF211592
:100B4000310551F04217530738F0A901DB019A0132
:100B5000BD01DF01F801C1CFEF01F9CF9093DB01B7
:100B60008093DA01CDCFFE01E20FF31F81939193C1
:100B70002250310939832883D7CF2091D801309171
:100B8000D901232B41F420910801309109013093C0
:100B9000D9012093D8012091060130910701211538
:100BA000310541F42DB73EB740910A0150910B0138
:100BB000241B350BE091D801F091D901E217F3071E
:100BC000A0F42E1B3F0B2817390778F0AC014E5FBD
:100BD0005F4F2417350748F04E0F5F1F5093D90120
:100BE0004093D801819391939FCFF0E0E0E09CCFB8
:100BF000CF93DF930097E9F0FC01329713821282C2
:100C0000A091DA01B091DB01ED0130E020E0109716
:100C1000A1F420813181820F931F2091D80130915E
:100C2000D9012817390709F061C0F093D901E09381
:100C3000D801DF91CF910895EA01CE17DF07E8F5DB
:100C40004A815B819E0141155105B1F7E901FB83A2
:100C5000EA8349915991C40FD51FEC17FD0761F440
:100C6000808191810296840F951FE9019983888381
:100C7000828193819B838A83F0E0E0E012968D91DC
:100C80009C9113970097B9F52D913C911197CD0147
:100C90000296820F931F2091D8013091D901281715
:100CA000390739F6309751F51092DB011092DA01CD
:100CB000B093D901A093D801BCCFD383C283408124
:100CC0005181840F951FC817D90761F44E5F5F4F9C
:100CD00088819981480F591F518340838A819B8164
:100CE000938382832115310509F0B0CFF093DB01A6
:100CF000E093DA019ECFFD01DC01C0CF13821282A6
:100D0000D7CFB0E0A0E0E7E8F6E00C9421058C0135
:100D1000009751F4CB010E945C058C01C801CDB74E
:100D2000DEB7E0E10C943D05FC01E60FF71F9C01E6
:100D300022503109E217F30708F49DC0D901CD9183
:100D4000DC911197C617D70798F0C530D10530F35D
:100D5000CE0104978617970708F3C61BD70B229777
:100D6000C193D1936D937C93CF010E94F805D6CFA8
:100D70005B01AC1ABD0A4C018C0E9D1EA091DA01DC
:100D8000B091DB01512C412CF12CE12C109731F565
:100D90008091D8019091D9018815990509F05CC01E
:100DA0004616570608F058C0809106019091070139
:100DB000009741F48DB79EB740910A0150910B0105
:100DC000841B950BE817F90708F055C0F093D9017B
:100DD000E093D801F90171836083A0CF8D919C913C
:100DE000119712966C90129713967C901397A815F2
:100DF000B90559F56C0142E0C40ED11CCA14DB04DC
:100E000020F1AC014A195B09DA011296159780F0BE
:100E10006282738251834083D9016D937C93E11484
:100E2000F10471F0D7011396FC93EE93129776CFED
:100E300022968C0F9D1FF90191838083F301EFCFE0
:100E4000F093DB01E093DA0169CF4816590608F404
:100E50002C017D01D3019ACFCB010E945C057C015E
:100E6000009749F0AE01B8010E943E07C8010E94F8
:100E7000F805870153CF10E000E050CFFB01DC0103
:100E800002C001900D9241505040D8F70895FB01E7
:100E9000DC0101900D920020E1F7089510E0C3E518
:100EA000D0E004C0FE010E9456052196C435D1074A
:060EB000C9F7F894FFCF22
:100EB600AD01AD01AE010000DC01800000000000C4
:100EC6001F017F00AC007101DD00BB00CF000000F8
:00000001FF
