:100000000C9462000C948A000C948A000C948A0070
:100010000C948A000C948A000C948A000C948A0038
:100020000C948A000C948A000C948A000C948A0028
:100030000C948A000C948A000C948A000C948A0018
:100040000C9443020C948A000C94B3020C948D021D
:100050000C948A000C948A000C948A000C948A00F8
:100060000C948A000C948A000000000023002600F3
:10007000290000000000240027002A0000000000E2
:10008000250028002B0004040404040404040202D4
:100090000202020203030303030301020408102007
:1000A0004080010204081020010204081020000012
:1000B0000008000201000003040700000000000027
:1000C00000002C0411241FBECFEFD8E0DEBFCDBF4F
:1000D00011E0A0E0B1E0E6E0F9E002C005900D9289
:1000E000A631B107D9F721E0A6E1B1E001C01D9228
:1000F000AC3BB207E1F710E0C2E6D0E004C02197C4
:10010000FE010E947B04C136D107C9F70E94E502B7
:100110000C9481040C940000833081F028F4813029
:1001200099F08230A9F008958730A9F08830C9F09D
:100130008430B1F4809180008F7D03C08091800075
:100140008F7780938000089584B58F7784BD08955C
:1001500084B58F7DFBCF8091B0008F778093B00006
:1001600008958091B0008F7DF9CF1F93CF93DF93D7
:10017000EBEBF0E09491E7EAF0E0D491E3E9F0E012
:10018000C491CC23B9F0182F992319F0892F0E941C
:100190008C00EC2FF0E0EE0FFF1FE458FF4FA5910D
:1001A000B4918FB7F894EC91111108C0D095DE236B
:1001B000DC938FBFDF91CF911F910895DE2BF8CF95
:1001C000CF93DF9390E0FC01E656FF4F24918A57CE
:1001D0009F4FFC0184918823D1F090E0880F991FF4
:1001E000FC01EE58FF4FA591B491FC01E458FF4F7C
:1001F000C591D49161110EC09FB7F8948C91E22FF4
:10020000E0958E238C932881E223E8839FBFDF91C2
:10021000CF9108958FB7F894EC91E22BEC938FBFB8
:10022000F6CF3FB7F8948091B8019091B901A091B1
:10023000BA01B091BB0126B5A89B05C02F3F19F0AC
:100240000196A11DB11D3FBFBA2FA92F982F882756
:10025000BC01CD01620F711D811D911D42E0660F31
:10026000771F881F991F4A95D1F70895AF92BF92C3
:10027000CF92DF92EF92FF920F931F93CF93DF9372
:100280006C017B018B01040F151FEB015E01AE18A1
:10029000BF08C017D10759F06991D601ED91FC91C3
:1002A0000190F081E02DC6010995892B79F7C501F0
:1002B000DF91CF911F910F91FF90EF90DF90CF9042
:1002C000BF90AF900895FC01538D448D252F30E0F1
:1002D000842F90E0821B930B541710F0CF96089553
:1002E00001970895FC01918D828D981761F0A28D80
:1002F000AE0FBF2FB11D5D968C91928D9F5F9F7346
:10030000928F90E008958FEF9FEF0895FC01918DFB
:10031000828D981731F0828DE80FF11D858D90E068
:1003200008958FEF9FEF0895FC01918D228D892F05
:1003300090E0805C9F4F821B91098F7399270895ED
:1003400086E191E00E94940121E0892B09F420E0EC
:10035000822F089580E090E0892B29F00E94A0016F
:1003600081110C9400000895FC01A48DA80FB92FF1
:10037000B11DA35ABF4F2C91848D90E001968F73CD
:100380009927848FA689B7892C93A089B1898C91EC
:10039000837080648C93938D848D981306C002883B
:1003A000F389E02D80818F7D80830895EF92FF9205
:1003B0000F931F93CF93DF93EC0181E0888F9B8D88
:1003C0008C8D98131AC0E889F989808185FF15C042
:1003D0009FB7F894EE89FF896083E889F989808165
:1003E0008370806480839FBF81E090E0DF91CF9134
:1003F0001F910F91FF90EF900895F62E0B8D10E056
:100400000F5F1F4F0F731127E02E8C8D8E110CC0C4
:100410000FB607FCFACFE889F989808185FFF5CF0F
:10042000CE010E94B401F1CFEB8DEC0FFD2FF11D39
:10043000E35AFF4FF0829FB7F8940B8FEA89FB894C
:1004400080818062CFCFCF93DF93EC01888D8823AA
:10045000B9F0AA89BB89E889F9898C9185FD03C027
:10046000808186FD0DC00FB607FCF7CF8C9185FF0C
:10047000F2CF808185FFEDCFCE010E94B401E9CF9C
:10048000DF91CF9108951F920F920FB60F92112412
:100490002F933F938F939F93AF93BF938091B4011A
:1004A0009091B501A091B601B091B7013091B3011F
:1004B00023E0230F2D3758F50196A11DB11D209380
:1004C000B3018093B4019093B501A093B601B093AA
:1004D000B7018091B8019091B901A091BA01B09192
:1004E000BB010196A11DB11D8093B8019093B90184
:1004F000A093BA01B093BB01BF91AF919F918F912F
:100500003F912F910F900FBE0F901F90189526E8E6
:10051000230F0296A11DB11DD2CF1F920F920FB6CD
:100520000F9211242F933F934F935F936F937F9379
:100530008F939F93AF93BF93EF93FF9386E191E0E7
:100540000E94B401FF91EF91BF91AF919F918F9164
:100550007F916F915F914F913F912F910F900FBEBF
:100560000F901F9018951F920F920FB60F921124A3
:100570002F938F939F93EF93FF93E0912601F09138
:1005800027018081E0912C01F0912D0182FD1BC09B
:10059000908180912F018F5F8F732091300182179E
:1005A00041F0E0912F01F0E0EA5EFE4F958F8093DD
:1005B0002F01FF91EF919F918F912F910F900FBE7F
:1005C0000F901F9018958081F4CFCF93DF93CDB714
:1005D000DEB7A1970FB6F894DEBF0FBECDBF7894FB
:1005E00084B5826084BD84B5816084BD85B5826038
:1005F00085BD85B5816085BD80916E0081608093E9
:100600006E00109281008091810082608093810051
:100610008091810081608093810080918000816061
:10062000809380008091B10084608093B1008091BC
:10063000B00081608093B00080917A0084608093E4
:100640007A0080917A00826080937A0080917A00AB
:10065000816080937A0080917A00806880937A002C
:100660001092C10061E08DE00E94E00060E082E055
:100670000E94E00060E083E10E94E000E09126013A
:10068000F091270182E08083E0912201F091230123
:100690001082E0912401F09125018FEC808310926B
:1006A0002E01E0912A01F0912B0186E08083E091F8
:1006B0002801F0912901808180618083E0912801E7
:1006C000F0912901808188608083E0912801F09178
:1006D0002901808180688083E0912801F0912901BF
:1006E00080818F7D80832AE0422E512C612C712CD9
:1006F00038E8232E30E0332E00E010E025E420938C
:100700007C0080917A00806480937A0080917A00E6
:1007100086FDFCCFC0907800D09079000D2C000CA5
:10072000EE08FF08F7FE82C06DE286E191E00E94CC
:10073000D60122273327A9012C193D094E095F094B
:1007400019A2CE0181967C01CA01B901A3019201CF
:100750000E945904605DF70162937F012115310504
:100760004105510589F7E114F10461F00190002081
:10077000E9F73197AF014E195F09B70186E191E0C2
:100780000E94360142E050E062E171E086E191E0D2
:100790000E9436010E9411014B015C0194E6C92EB2
:1007A000D12CE12CF12C0E941101681979098A09D8
:1007B0009B09683E734081059105A8F3F1E0CF1ACB
:1007C000D108E108F10828EE820E23E0921EA11C58
:1007D000B11CC114D104E104F10429F7E0EBF0E00D
:1007E0008491ECE9F0E0F490F101E490EE2079F0EE
:1007F00081110E948C00EE2DF0E0EE0FFF1FE859F2
:10080000FF4FA591B4918C91F82280E009F481E02A
:100810000E94B5000115110509F470CF0E94A001D6
:10082000882309F46BCF0E94000068CFA7019601CE
:1008300019A2CE0181967C01CA01B901A3019201DE
:100840000E945904605DF70162937F012115310513
:100850004105510589F787CFE6E1F1E01382128265
:1008600088EE93E0A0E0B0E084839583A683B7830D
:1008700084E091E09183808385EC90E09587848784
:1008800084EC90E09787868780EC90E0918B808B5A
:1008900081EC90E0938B828B82EC90E0958B848B43
:1008A00086EC90E0978B868B118E128E138E148EB1
:1008B0000895A1E21A2EAA1BBB1BFD010DC0AA1FA1
:1008C000BB1FEE1FFF1FA217B307E407F50720F0B9
:1008D000A21BB30BE40BF50B661F771F881F991F34
:1008E0001A9469F760957095809590959B01AC017D
:1008F000BD01CF010895EE0FFF1F0590F491E02D8B
:060900000994F894FFCFFA
:1009060000000000D6013601630123029401720142
:0609160086010D0A00003D
:00000001FF
